{
    "_format": "hh-sol-artifact-1",
    "contractName": "ProfileContract",
    "sourceName": "contracts/Profile.sol",
    "abi": [
        {
            "inputs": [],
            "stateMutability": "nonpayable",
            "type": "constructor"
        },
        {
            "anonymous": false,
            "inputs": [
                {
                    "indexed": true,
                    "internalType": "bytes32",
                    "name": "role",
                    "type": "bytes32"
                },
                {
                    "indexed": true,
                    "internalType": "bytes32",
                    "name": "previousAdminRole",
                    "type": "bytes32"
                },
                {
                    "indexed": true,
                    "internalType": "bytes32",
                    "name": "newAdminRole",
                    "type": "bytes32"
                }
            ],
            "name": "RoleAdminChanged",
            "type": "event"
        },
        {
            "anonymous": false,
            "inputs": [
                {
                    "indexed": true,
                    "internalType": "bytes32",
                    "name": "role",
                    "type": "bytes32"
                },
                {
                    "indexed": true,
                    "internalType": "address",
                    "name": "account",
                    "type": "address"
                },
                {
                    "indexed": true,
                    "internalType": "address",
                    "name": "sender",
                    "type": "address"
                }
            ],
            "name": "RoleGranted",
            "type": "event"
        },
        {
            "anonymous": false,
            "inputs": [
                {
                    "indexed": true,
                    "internalType": "bytes32",
                    "name": "role",
                    "type": "bytes32"
                },
                {
                    "indexed": true,
                    "internalType": "address",
                    "name": "account",
                    "type": "address"
                },
                {
                    "indexed": true,
                    "internalType": "address",
                    "name": "sender",
                    "type": "address"
                }
            ],
            "name": "RoleRevoked",
            "type": "event"
        },
        {
            "inputs": [],
            "name": "DAO_ROLE",
            "outputs": [
                {
                    "internalType": "bytes32",
                    "name": "",
                    "type": "bytes32"
                }
            ],
            "stateMutability": "view",
            "type": "function"
        },
        {
            "inputs": [],
            "name": "DEFAULT_ADMIN_ROLE",
            "outputs": [
                {
                    "internalType": "bytes32",
                    "name": "",
                    "type": "bytes32"
                }
            ],
            "stateMutability": "view",
            "type": "function"
        },
        {
            "inputs": [
                {
                    "internalType": "address",
                    "name": "creator",
                    "type": "address"
                },
                {
                    "internalType": "address",
                    "name": "altAddress",
                    "type": "address"
                },
                {
                    "internalType": "uint256",
                    "name": "deadline",
                    "type": "uint256"
                },
                {
                    "internalType": "uint256",
                    "name": "chainID",
                    "type": "uint256"
                },
                {
                    "internalType": "uint8",
                    "name": "v",
                    "type": "uint8"
                },
                {
                    "internalType": "bytes32",
                    "name": "r",
                    "type": "bytes32"
                },
                {
                    "internalType": "bytes32",
                    "name": "s",
                    "type": "bytes32"
                }
            ],
            "name": "addAddressEVM",
            "outputs": [],
            "stateMutability": "nonpayable",
            "type": "function"
        },
        {
            "inputs": [
                {
                    "internalType": "address",
                    "name": "creator",
                    "type": "address"
                },
                {
                    "internalType": "address",
                    "name": "altAddress",
                    "type": "address"
                },
                {
                    "internalType": "uint256",
                    "name": "deadline",
                    "type": "uint256"
                },
                {
                    "internalType": "uint256",
                    "name": "chainID",
                    "type": "uint256"
                },
                {
                    "internalType": "uint8",
                    "name": "v",
                    "type": "uint8"
                },
                {
                    "internalType": "bytes32",
                    "name": "r",
                    "type": "bytes32"
                },
                {
                    "internalType": "bytes32",
                    "name": "s",
                    "type": "bytes32"
                },
                {
                    "internalType": "uint8",
                    "name": "v2",
                    "type": "uint8"
                },
                {
                    "internalType": "bytes32",
                    "name": "r2",
                    "type": "bytes32"
                },
                {
                    "internalType": "bytes32",
                    "name": "s2",
                    "type": "bytes32"
                }
            ],
            "name": "addAddressEVMMeta",
            "outputs": [],
            "stateMutability": "nonpayable",
            "type": "function"
        },
        {
            "inputs": [
                {
                    "internalType": "address",
                    "name": "",
                    "type": "address"
                }
            ],
            "name": "addressProfileMapping",
            "outputs": [
                {
                    "internalType": "uint256",
                    "name": "",
                    "type": "uint256"
                }
            ],
            "stateMutability": "view",
            "type": "function"
        },
        {
            "inputs": [
                {
                    "internalType": "string",
                    "name": "identityID",
                    "type": "string"
                }
            ],
            "name": "createProfileEVM",
            "outputs": [
                {
                    "internalType": "bool",
                    "name": "",
                    "type": "bool"
                }
            ],
            "stateMutability": "nonpayable",
            "type": "function"
        },
        {
            "inputs": [
                {
                    "internalType": "address",
                    "name": "creator",
                    "type": "address"
                },
                {
                    "internalType": "string",
                    "name": "identityID",
                    "type": "string"
                },
                {
                    "internalType": "string",
                    "name": "descriptionID",
                    "type": "string"
                },
                {
                    "internalType": "uint256",
                    "name": "deadline",
                    "type": "uint256"
                },
                {
                    "internalType": "uint256",
                    "name": "chainID",
                    "type": "uint256"
                },
                {
                    "internalType": "uint8",
                    "name": "v",
                    "type": "uint8"
                },
                {
                    "internalType": "bytes32",
                    "name": "r",
                    "type": "bytes32"
                },
                {
                    "internalType": "bytes32",
                    "name": "s",
                    "type": "bytes32"
                }
            ],
            "name": "createProfileEVMMeta",
            "outputs": [
                {
                    "internalType": "bool",
                    "name": "",
                    "type": "bool"
                }
            ],
            "stateMutability": "nonpayable",
            "type": "function"
        },
        {
            "inputs": [
                {
                    "internalType": "uint256",
                    "name": "profileID",
                    "type": "uint256"
                }
            ],
            "name": "getContentID",
            "outputs": [
                {
                    "internalType": "string",
                    "name": "identityID",
                    "type": "string"
                },
                {
                    "internalType": "string",
                    "name": "descriptionID",
                    "type": "string"
                },
                {
                    "internalType": "string",
                    "name": "verifyID",
                    "type": "string"
                }
            ],
            "stateMutability": "view",
            "type": "function"
        },
        {
            "inputs": [
                {
                    "internalType": "address",
                    "name": "owner",
                    "type": "address"
                }
            ],
            "name": "getProfilefromAddress",
            "outputs": [
                {
                    "components": [
                        {
                            "internalType": "string",
                            "name": "identityID",
                            "type": "string"
                        },
                        {
                            "internalType": "string",
                            "name": "descriptionID",
                            "type": "string"
                        },
                        {
                            "internalType": "string",
                            "name": "verifyID",
                            "type": "string"
                        }
                    ],
                    "internalType": "struct ProfileContract.Profile",
                    "name": "",
                    "type": "tuple"
                }
            ],
            "stateMutability": "view",
            "type": "function"
        },
        {
            "inputs": [
                {
                    "internalType": "uint256",
                    "name": "profileID",
                    "type": "uint256"
                }
            ],
            "name": "getProfilefromID",
            "outputs": [
                {
                    "components": [
                        {
                            "internalType": "string",
                            "name": "identityID",
                            "type": "string"
                        },
                        {
                            "internalType": "string",
                            "name": "descriptionID",
                            "type": "string"
                        },
                        {
                            "internalType": "string",
                            "name": "verifyID",
                            "type": "string"
                        }
                    ],
                    "internalType": "struct ProfileContract.Profile",
                    "name": "",
                    "type": "tuple"
                }
            ],
            "stateMutability": "view",
            "type": "function"
        },
        {
            "inputs": [
                {
                    "internalType": "bytes32",
                    "name": "role",
                    "type": "bytes32"
                }
            ],
            "name": "getRoleAdmin",
            "outputs": [
                {
                    "internalType": "bytes32",
                    "name": "",
                    "type": "bytes32"
                }
            ],
            "stateMutability": "view",
            "type": "function"
        },
        {
            "inputs": [
                {
                    "internalType": "bytes32",
                    "name": "role",
                    "type": "bytes32"
                },
                {
                    "internalType": "address",
                    "name": "account",
                    "type": "address"
                }
            ],
            "name": "grantRole",
            "outputs": [],
            "stateMutability": "nonpayable",
            "type": "function"
        },
        {
            "inputs": [
                {
                    "internalType": "bytes32",
                    "name": "role",
                    "type": "bytes32"
                },
                {
                    "internalType": "address",
                    "name": "account",
                    "type": "address"
                }
            ],
            "name": "hasRole",
            "outputs": [
                {
                    "internalType": "bool",
                    "name": "",
                    "type": "bool"
                }
            ],
            "stateMutability": "view",
            "type": "function"
        },
        {
            "inputs": [
                {
                    "internalType": "address",
                    "name": "owner",
                    "type": "address"
                }
            ],
            "name": "nonces",
            "outputs": [
                {
                    "internalType": "uint256",
                    "name": "",
                    "type": "uint256"
                }
            ],
            "stateMutability": "view",
            "type": "function"
        },
        {
            "inputs": [
                {
                    "internalType": "uint256",
                    "name": "",
                    "type": "uint256"
                }
            ],
            "name": "profiles",
            "outputs": [
                {
                    "internalType": "string",
                    "name": "identityID",
                    "type": "string"
                },
                {
                    "internalType": "string",
                    "name": "descriptionID",
                    "type": "string"
                },
                {
                    "internalType": "string",
                    "name": "verifyID",
                    "type": "string"
                }
            ],
            "stateMutability": "view",
            "type": "function"
        },
        {
            "inputs": [
                {
                    "internalType": "bytes32",
                    "name": "role",
                    "type": "bytes32"
                },
                {
                    "internalType": "address",
                    "name": "account",
                    "type": "address"
                }
            ],
            "name": "renounceRole",
            "outputs": [],
            "stateMutability": "nonpayable",
            "type": "function"
        },
        {
            "inputs": [
                {
                    "internalType": "bytes32",
                    "name": "role",
                    "type": "bytes32"
                },
                {
                    "internalType": "address",
                    "name": "account",
                    "type": "address"
                }
            ],
            "name": "revokeRole",
            "outputs": [],
            "stateMutability": "nonpayable",
            "type": "function"
        },
        {
            "inputs": [
                {
                    "internalType": "bytes4",
                    "name": "interfaceId",
                    "type": "bytes4"
                }
            ],
            "name": "supportsInterface",
            "outputs": [
                {
                    "internalType": "bool",
                    "name": "",
                    "type": "bool"
                }
            ],
            "stateMutability": "view",
            "type": "function"
        },
        {
            "inputs": [
                {
                    "internalType": "string",
                    "name": "identityID",
                    "type": "string"
                }
            ],
            "name": "updateProfileEVM",
            "outputs": [
                {
                    "internalType": "bool",
                    "name": "",
                    "type": "bool"
                }
            ],
            "stateMutability": "nonpayable",
            "type": "function"
        },
        {
            "inputs": [
                {
                    "internalType": "address",
                    "name": "creator",
                    "type": "address"
                },
                {
                    "internalType": "string",
                    "name": "identityID",
                    "type": "string"
                },
                {
                    "internalType": "string",
                    "name": "descriptionID",
                    "type": "string"
                },
                {
                    "internalType": "uint256",
                    "name": "deadline",
                    "type": "uint256"
                },
                {
                    "internalType": "uint256",
                    "name": "chainID",
                    "type": "uint256"
                },
                {
                    "internalType": "uint8",
                    "name": "v",
                    "type": "uint8"
                },
                {
                    "internalType": "bytes32",
                    "name": "r",
                    "type": "bytes32"
                },
                {
                    "internalType": "bytes32",
                    "name": "s",
                    "type": "bytes32"
                }
            ],
            "name": "updateProfileEVMMeta",
            "outputs": [
                {
                    "internalType": "bool",
                    "name": "",
                    "type": "bool"
                }
            ],
            "stateMutability": "nonpayable",
            "type": "function"
        },
        {
            "inputs": [
                {
                    "internalType": "address",
                    "name": "creator",
                    "type": "address"
                },
                {
                    "internalType": "string",
                    "name": "verifyID",
                    "type": "string"
                }
            ],
            "name": "verifyIdentityEVM",
            "outputs": [
                {
                    "internalType": "bool",
                    "name": "",
                    "type": "bool"
                }
            ],
            "stateMutability": "nonpayable",
            "type": "function"
        },
        {
            "inputs": [
                {
                    "internalType": "address",
                    "name": "creator",
                    "type": "address"
                },
                {
                    "internalType": "address",
                    "name": "verifier",
                    "type": "address"
                },
                {
                    "internalType": "string",
                    "name": "verifyID",
                    "type": "string"
                },
                {
                    "internalType": "uint256",
                    "name": "deadline",
                    "type": "uint256"
                },
                {
                    "internalType": "uint256",
                    "name": "chainID",
                    "type": "uint256"
                },
                {
                    "internalType": "uint8",
                    "name": "v",
                    "type": "uint8"
                },
                {
                    "internalType": "bytes32",
                    "name": "r",
                    "type": "bytes32"
                },
                {
                    "internalType": "bytes32",
                    "name": "s",
                    "type": "bytes32"
                }
            ],
            "name": "verifyIdentityEVMMeta",
            "outputs": [
                {
                    "internalType": "bool",
                    "name": "",
                    "type": "bool"
                }
            ],
            "stateMutability": "nonpayable",
            "type": "function"
        }
    ],
    "bytecode": "0x60806040523480156200001157600080fd5b50620000276000801b336200005f60201b60201c565b620000597f3b5d4cc60d3ec3516ee8ae083bd60934f6eb2a6c54b1229985c41bfb092b2603336200005f60201b60201c565b620001d8565b6200007182826200007560201b60201c565b5050565b6200008782826200016660201b60201c565b6200016257600160008084815260200190815260200160002060000160008373ffffffffffffffffffffffffffffffffffffffff1673ffffffffffffffffffffffffffffffffffffffff16815260200190815260200160002060006101000a81548160ff02191690831515021790555062000107620001d060201b60201c565b73ffffffffffffffffffffffffffffffffffffffff168173ffffffffffffffffffffffffffffffffffffffff16837f2f8788117e7eff1d82e926ec794901d17c78024a50270940304540a733656f0d60405160405180910390a45b5050565b600080600084815260200190815260200160002060000160008373ffffffffffffffffffffffffffffffffffffffff1673ffffffffffffffffffffffffffffffffffffffff16815260200190815260200160002060009054906101000a900460ff16905092915050565b600033905090565b61481280620001e86000396000f3fe608060405234801561001057600080fd5b50600436106101425760003560e01c80639e3d4c7c116100b8578063c0a431291161007c578063c0a43129146103e7578063c36fe3d614610417578063d13f919a14610449578063d315bf6a14610479578063d547741f146104a9578063e9c26518146104c557610142565b80639e3d4c7c1461031b578063a217fddf1461034d578063a394a3e31461036b578063a4d9bf6e14610387578063b6377950146103b757610142565b80632f2ff15d1161010a5780632f2ff15d1461022357806336568abe1461023f5780633f2e64821461025b5780634ed62bfa1461028b5780637ecebe00146102bb57806391d14854146102eb57610142565b806301ffc9a71461014757806305697411146101775780632020b7c6146101a7578063248a9ca3146101d75780632a7d7be414610207575b600080fd5b610161600480360381019061015c9190613740565b6104e3565b60405161016e9190613dbd565b60405180910390f35b610191600480360381019061018c91906135f9565b61055d565b60405161019e9190613dbd565b60405180910390f35b6101c160048036038101906101bc9190613769565b6106f8565b6040516101ce9190613dbd565b60405180910390f35b6101f160048036038101906101ec91906136db565b610796565b6040516101fe9190613dd8565b60405180910390f35b610221600480360381019061021c919061342c565b6107b5565b005b61023d60048036038101906102389190613704565b6109b3565b005b61025960048036038101906102549190613704565b6109dc565b005b61027560048036038101906102709190613362565b610a5f565b6040516102829190613dbd565b60405180910390f35b6102a560048036038101906102a09190613769565b610c62565b6040516102b29190613dbd565b60405180910390f35b6102d560048036038101906102d09190613339565b610d22565b6040516102e291906140db565b60405180910390f35b61030560048036038101906103009190613704565b610d72565b6040516103129190613dbd565b60405180910390f35b610335600480360381019061033091906137d5565b610ddc565b60405161034493929190613ead565b60405180910390f35b610355611083565b6040516103629190613dd8565b60405180910390f35b610385600480360381019061038091906134ca565b61108a565b005b6103a1600480360381019061039c91906137d5565b6112ad565b6040516103ae91906140b9565b60405180910390f35b6103d160048036038101906103cc9190613339565b61153d565b6040516103de91906140b9565b60405180910390f35b61040160048036038101906103fc9190613339565b611812565b60405161040e91906140db565b60405180910390f35b610431600480360381019061042c91906137d5565b61182a565b60405161044093929190613ead565b60405180910390f35b610463600480360381019061045e91906135a5565b6119fc565b6040516104709190613dbd565b60405180910390f35b610493600480360381019061048e91906135f9565b611b25565b6040516104a09190613dbd565b60405180910390f35b6104c360048036038101906104be9190613704565b611c9e565b005b6104cd611cc7565b6040516104da9190613dd8565b60405180910390f35b60007f7965db0b000000000000000000000000000000000000000000000000000000007bffffffffffffffffffffffffffffffffffffffffffffffffffffffff1916827bffffffffffffffffffffffffffffffffffffffffffffffffffffffff19161480610556575061055582611ceb565b5b9050919050565b6000854211156105a2576040517f08c379a000000000000000000000000000000000000000000000000000000000815260040161059990613f39565b60405180910390fd5b6000600260008b73ffffffffffffffffffffffffffffffffffffffff1673ffffffffffffffffffffffffffffffffffffffff16815260200190815260200160002054905060008111801561060c575061060960018080549050611d5590919063ffffffff16565b81105b61064b576040517f08c379a000000000000000000000000000000000000000000000000000000000815260040161064290614019565b60405180910390fd5b600061065a8b8b8b8b8b611db3565b9050600061066a82888888611e81565b90508b73ffffffffffffffffffffffffffffffffffffffff168173ffffffffffffffffffffffffffffffffffffffff16146106da576040517f08c379a00000000000000000000000000000000000000000000000000000000081526004016106d190613f59565b60405180910390fd5b6106e5838c8c611f7c565b6001935050505098975050505050505050565b600080600260003373ffffffffffffffffffffffffffffffffffffffff1673ffffffffffffffffffffffffffffffffffffffff16815260200190815260200160002054905060008114610780576040517f08c379a000000000000000000000000000000000000000000000000000000000815260040161077790614059565b60405180910390fd5b61078b3385856122be565b600191505092915050565b6000806000838152602001908152602001600020600101549050919050565b3373ffffffffffffffffffffffffffffffffffffffff168773ffffffffffffffffffffffffffffffffffffffff1614610823576040517f08c379a000000000000000000000000000000000000000000000000000000000815260040161081a90613fb9565b60405180910390fd5b84421115610866576040517f08c379a000000000000000000000000000000000000000000000000000000000815260040161085d90613f39565b60405180910390fd5b6000600260008973ffffffffffffffffffffffffffffffffffffffff1673ffffffffffffffffffffffffffffffffffffffff1681526020019081526020016000205490506000811180156108d057506108cd60018080549050611d5590919063ffffffff16565b81105b61090f576040517f08c379a000000000000000000000000000000000000000000000000000000000815260040161090690614019565b60405180910390fd5b600061091d898989896123c0565b9050600061092d82878787611e81565b90508873ffffffffffffffffffffffffffffffffffffffff168173ffffffffffffffffffffffffffffffffffffffff161461099d576040517f08c379a000000000000000000000000000000000000000000000000000000000815260040161099490613f59565b60405180910390fd5b6109a7838a61249c565b50505050505050505050565b6109bc82610796565b6109cd816109c86124e4565b6124ec565b6109d78383612589565b505050565b6109e46124e4565b73ffffffffffffffffffffffffffffffffffffffff168173ffffffffffffffffffffffffffffffffffffffff1614610a51576040517f08c379a0000000000000000000000000000000000000000000000000000000008152600401610a4890614099565b60405180910390fd5b610a5b8282612669565b5050565b600085421115610aa4576040517f08c379a0000000000000000000000000000000000000000000000000000000008152600401610a9b90613f39565b60405180910390fd5b6000600260008b73ffffffffffffffffffffffffffffffffffffffff1673ffffffffffffffffffffffffffffffffffffffff168152602001908152602001600020549050600081118015610b0e5750610b0b60018080549050611d5590919063ffffffff16565b81105b610b4d576040517f08c379a0000000000000000000000000000000000000000000000000000000008152600401610b4490614019565b60405180910390fd5b6000610b5c8b8b8b8b8b61274a565b90506000610b6c82888888611e81565b90508a73ffffffffffffffffffffffffffffffffffffffff168173ffffffffffffffffffffffffffffffffffffffff1614610bdc576040517f08c379a0000000000000000000000000000000000000000000000000000000008152600401610bd390613ff9565b60405180910390fd5b610c067f3b5d4cc60d3ec3516ee8ae083bd60934f6eb2a6c54b1229985c41bfb092b260382610d72565b610c45576040517f08c379a0000000000000000000000000000000000000000000000000000000008152600401610c3c90614039565b60405180910390fd5b610c4f838b61280f565b6001935050505098975050505050505050565b600080600260003373ffffffffffffffffffffffffffffffffffffffff1673ffffffffffffffffffffffffffffffffffffffff168152602001908152602001600020549050600081118015610ccd5750610cca60018080549050611d5590919063ffffffff16565b81105b610d0c576040517f08c379a0000000000000000000000000000000000000000000000000000000008152600401610d0390614019565b60405180910390fd5b610d17818585611f7c565b600191505092915050565b6000610d6b600360008473ffffffffffffffffffffffffffffffffffffffff1673ffffffffffffffffffffffffffffffffffffffff168152602001908152602001600020612af3565b9050919050565b600080600084815260200190815260200160002060000160008373ffffffffffffffffffffffffffffffffffffffff1673ffffffffffffffffffffffffffffffffffffffff16815260200190815260200160002060009054906101000a900460ff16905092915050565b6060806060600084118015610e075750610e0460018080549050611d5590919063ffffffff16565b84105b610e46576040517f08c379a0000000000000000000000000000000000000000000000000000000008152600401610e3d90614079565b60405180910390fd5b60006001610e5e600187612b0190919063ffffffff16565b81548110610e95577f4e487b7100000000000000000000000000000000000000000000000000000000600052603260045260246000fd5b9060005260206000209060030201604051806060016040529081600082018054610ebe90614375565b80601f0160208091040260200160405190810160405280929190818152602001828054610eea90614375565b8015610f375780601f10610f0c57610100808354040283529160200191610f37565b820191906000526020600020905b815481529060010190602001808311610f1a57829003601f168201915b50505050508152602001600182018054610f5090614375565b80601f0160208091040260200160405190810160405280929190818152602001828054610f7c90614375565b8015610fc95780601f10610f9e57610100808354040283529160200191610fc9565b820191906000526020600020905b815481529060010190602001808311610fac57829003601f168201915b50505050508152602001600282018054610fe290614375565b80601f016020809104026020016040519081016040528092919081815260200182805461100e90614375565b801561105b5780601f106110305761010080835404028352916020019161105b565b820191906000526020600020905b81548152906001019060200180831161103e57829003601f168201915b5050505050815250509050806000015181602001518260400151935093509350509193909250565b6000801b81565b874211156110cd576040517f08c379a00000000000000000000000000000000000000000000000000000000081526004016110c490613f39565b60405180910390fd5b6000600260008c73ffffffffffffffffffffffffffffffffffffffff1673ffffffffffffffffffffffffffffffffffffffff168152602001908152602001600020549050600081118015611137575061113460018080549050611d5590919063ffffffff16565b81105b611176576040517f08c379a000000000000000000000000000000000000000000000000000000000815260040161116d90614019565b60405180910390fd5b60006111848c8c8c8c6123c0565b905060006111948d8d8d8d612b5a565b905060006111a482888888611e81565b90508c73ffffffffffffffffffffffffffffffffffffffff168173ffffffffffffffffffffffffffffffffffffffff1614611214576040517f08c379a000000000000000000000000000000000000000000000000000000000815260040161120b90613f59565b60405180910390fd5b6000611222848c8c8c611e81565b90508e73ffffffffffffffffffffffffffffffffffffffff168173ffffffffffffffffffffffffffffffffffffffff1614611292576040517f08c379a000000000000000000000000000000000000000000000000000000000815260040161128990613f99565b60405180910390fd5b61129c858f61249c565b505050505050505050505050505050565b6112b56131a4565b6000821180156112db57506112d860018080549050611d5590919063ffffffff16565b82105b61131a576040517f08c379a000000000000000000000000000000000000000000000000000000000815260040161131190614079565b60405180910390fd5b6001611330600184612b0190919063ffffffff16565b81548110611367577f4e487b7100000000000000000000000000000000000000000000000000000000600052603260045260246000fd5b906000526020600020906003020160405180606001604052908160008201805461139090614375565b80601f01602080910402602001604051908101604052809291908181526020018280546113bc90614375565b80156114095780601f106113de57610100808354040283529160200191611409565b820191906000526020600020905b8154815290600101906020018083116113ec57829003601f168201915b5050505050815260200160018201805461142290614375565b80601f016020809104026020016040519081016040528092919081815260200182805461144e90614375565b801561149b5780601f106114705761010080835404028352916020019161149b565b820191906000526020600020905b81548152906001019060200180831161147e57829003601f168201915b505050505081526020016002820180546114b490614375565b80601f01602080910402602001604051908101604052809291908181526020018280546114e090614375565b801561152d5780601f106115025761010080835404028352916020019161152d565b820191906000526020600020905b81548152906001019060200180831161151057829003601f168201915b5050505050815250509050919050565b6115456131a4565b6000600260008473ffffffffffffffffffffffffffffffffffffffff1673ffffffffffffffffffffffffffffffffffffffff1681526020019081526020016000205490506000811180156115af57506115ac60018080549050611d5590919063ffffffff16565b81105b6115ee576040517f08c379a00000000000000000000000000000000000000000000000000000000081526004016115e590614079565b60405180910390fd5b6001611604600183612b0190919063ffffffff16565b8154811061163b577f4e487b7100000000000000000000000000000000000000000000000000000000600052603260045260246000fd5b906000526020600020906003020160405180606001604052908160008201805461166490614375565b80601f016020809104026020016040519081016040528092919081815260200182805461169090614375565b80156116dd5780601f106116b2576101008083540402835291602001916116dd565b820191906000526020600020905b8154815290600101906020018083116116c057829003601f168201915b505050505081526020016001820180546116f690614375565b80601f016020809104026020016040519081016040528092919081815260200182805461172290614375565b801561176f5780601f106117445761010080835404028352916020019161176f565b820191906000526020600020905b81548152906001019060200180831161175257829003601f168201915b5050505050815260200160028201805461178890614375565b80601f01602080910402602001604051908101604052809291908181526020018280546117b490614375565b80156118015780601f106117d657610100808354040283529160200191611801565b820191906000526020600020905b8154815290600101906020018083116117e457829003601f168201915b505050505081525050915050919050565b60026020528060005260406000206000915090505481565b6001818154811061183a57600080fd5b906000526020600020906003020160009150905080600001805461185d90614375565b80601f016020809104026020016040519081016040528092919081815260200182805461188990614375565b80156118d65780601f106118ab576101008083540402835291602001916118d6565b820191906000526020600020905b8154815290600101906020018083116118b957829003601f168201915b5050505050908060010180546118eb90614375565b80601f016020809104026020016040519081016040528092919081815260200182805461191790614375565b80156119645780601f1061193957610100808354040283529160200191611964565b820191906000526020600020905b81548152906001019060200180831161194757829003601f168201915b50505050509080600201805461197990614375565b80601f01602080910402602001604051908101604052809291908181526020018280546119a590614375565b80156119f25780601f106119c7576101008083540402835291602001916119f2565b820191906000526020600020905b8154815290600101906020018083116119d557829003601f168201915b5050505050905083565b6000611a287f3b5d4cc60d3ec3516ee8ae083bd60934f6eb2a6c54b1229985c41bfb092b260333610d72565b611a67576040517f08c379a0000000000000000000000000000000000000000000000000000000008152600401611a5e90613fd9565b60405180910390fd5b6000600260008573ffffffffffffffffffffffffffffffffffffffff1673ffffffffffffffffffffffffffffffffffffffff168152602001908152602001600020549050600081118015611ad15750611ace60018080549050611d5590919063ffffffff16565b81105b611b10576040517f08c379a0000000000000000000000000000000000000000000000000000000008152600401611b0790614019565b60405180910390fd5b611b1a818461280f565b600191505092915050565b600085421115611b6a576040517f08c379a0000000000000000000000000000000000000000000000000000000008152600401611b6190613f39565b60405180910390fd5b6000600260008b73ffffffffffffffffffffffffffffffffffffffff1673ffffffffffffffffffffffffffffffffffffffff16815260200190815260200160002054905060008114611bf1576040517f08c379a0000000000000000000000000000000000000000000000000000000008152600401611be890614059565b60405180910390fd5b6000611c008b8b8b8b8b612c36565b90506000611c1082888888611e81565b90508b73ffffffffffffffffffffffffffffffffffffffff168173ffffffffffffffffffffffffffffffffffffffff1614611c80576040517f08c379a0000000000000000000000000000000000000000000000000000000008152600401611c7790613f59565b60405180910390fd5b611c8b8c8c8c6122be565b6001935050505098975050505050505050565b611ca782610796565b611cb881611cb36124e4565b6124ec565b611cc28383612669565b505050565b7f3b5d4cc60d3ec3516ee8ae083bd60934f6eb2a6c54b1229985c41bfb092b260381565b60007f01ffc9a7000000000000000000000000000000000000000000000000000000007bffffffffffffffffffffffffffffffffffffffffffffffffffffffff1916827bffffffffffffffffffffffffffffffffffffffffffffffffffffffff1916149050919050565b6000808284611d64919061419a565b905083811015611da9576040517f08c379a0000000000000000000000000000000000000000000000000000000008152600401611da090613f19565b60405180910390fd5b8091505092915050565b600080611dbf83612d04565b905060007fc43231db5701629575494d30d020b1f0347f428c32c9109ada9f390559d5dc4688604051602001611df59190613da2565b60405160208183030381529060405288805190602001208880519060200120611e1d8c612dd4565b89604051602001611e3396959493929190613bfc565b6040516020818303038152906040528051906020012090508181604051602001611e5e929190613d31565b604051602081830303815290604052805190602001209250505095945050505050565b60007f7fffffffffffffffffffffffffffffff5d576e7357a4501ddfe92f46681b20a08260001c1115611eb75760009050611f74565b601b8460ff1614158015611ecf5750601c8460ff1614155b15611edd5760009050611f74565b600060018686868660405160008152602001604052604051611f029493929190613e46565b6020604051602081039080840390855afa158015611f24573d6000803e3d6000fd5b505050602060405103519050600073ffffffffffffffffffffffffffffffffffffffff168173ffffffffffffffffffffffffffffffffffffffff161415611f6f576000915050611f74565b809150505b949350505050565b60006001611f94600186612b0190919063ffffffff16565b81548110611fcb577f4e487b7100000000000000000000000000000000000000000000000000000000600052603260045260246000fd5b9060005260206000209060030201604051806060016040529081600082018054611ff490614375565b80601f016020809104026020016040519081016040528092919081815260200182805461202090614375565b801561206d5780601f106120425761010080835404028352916020019161206d565b820191906000526020600020905b81548152906001019060200180831161205057829003601f168201915b5050505050815260200160018201805461208690614375565b80601f01602080910402602001604051908101604052809291908181526020018280546120b290614375565b80156120ff5780601f106120d4576101008083540402835291602001916120ff565b820191906000526020600020905b8154815290600101906020018083116120e257829003601f168201915b5050505050815260200160028201805461211890614375565b80601f016020809104026020016040519081016040528092919081815260200182805461214490614375565b80156121915780601f1061216657610100808354040283529160200191612191565b820191906000526020600020905b81548152906001019060200180831161217457829003601f168201915b50505050508152505090506121b58360405180602001604052806000815250612e32565b6121db578281600001819052506040518060200160405280600081525081604001819052505b6121f48260405180602001604052806000815250612e32565b612202578181602001819052505b806001612219600187612b0190919063ffffffff16565b81548110612250577f4e487b7100000000000000000000000000000000000000000000000000000000600052603260045260246000fd5b9060005260206000209060030201600082015181600001908051906020019061227a9291906131c5565b5060208201518160010190805190602001906122979291906131c5565b5060408201518160020190805190602001906122b49291906131c5565b5090505050505050565b60006040518060600160405280848152602001838152602001604051806020016040528060008152508152509050600181908060018154018082558091505060019003906000526020600020906003020160009091909190915060008201518160000190805190602001906123349291906131c5565b5060208201518160010190805190602001906123519291906131c5565b50604082015181600201908051906020019061236e9291906131c5565b505050600180549050600260008673ffffffffffffffffffffffffffffffffffffffff1673ffffffffffffffffffffffffffffffffffffffff1681526020019081526020016000208190555050505050565b6000806123cc83612d04565b905060007f6b0553a826f28cfffb3ed7e2e5b5a3d36f27f917dbb35c73cda3d47d82642e28876040516020016124029190613da2565b604051602081830303815290604052876040516020016124229190613da2565b60405160208183030381529060405261243a8a612dd4565b8860405160200161244f959493929190613cc3565b604051602081830303815290604052805190602001209050818160405160200161247a929190613d31565b6040516020818303038152906040528051906020012092505050949350505050565b81600260008373ffffffffffffffffffffffffffffffffffffffff1673ffffffffffffffffffffffffffffffffffffffff168152602001908152602001600020819055505050565b600033905090565b6124f68282610d72565b6125855761251b8173ffffffffffffffffffffffffffffffffffffffff166014612e8b565b6125298360001c6020612e8b565b60405160200161253a929190613d68565b6040516020818303038152906040526040517f08c379a000000000000000000000000000000000000000000000000000000000815260040161257c9190613e8b565b60405180910390fd5b5050565b6125938282610d72565b61266557600160008084815260200190815260200160002060000160008373ffffffffffffffffffffffffffffffffffffffff1673ffffffffffffffffffffffffffffffffffffffff16815260200190815260200160002060006101000a81548160ff02191690831515021790555061260a6124e4565b73ffffffffffffffffffffffffffffffffffffffff168173ffffffffffffffffffffffffffffffffffffffff16837f2f8788117e7eff1d82e926ec794901d17c78024a50270940304540a733656f0d60405160405180910390a45b5050565b6126738282610d72565b1561274657600080600084815260200190815260200160002060000160008373ffffffffffffffffffffffffffffffffffffffff1673ffffffffffffffffffffffffffffffffffffffff16815260200190815260200160002060006101000a81548160ff0219169083151502179055506126eb6124e4565b73ffffffffffffffffffffffffffffffffffffffff168173ffffffffffffffffffffffffffffffffffffffff16837ff6391f5c32d9c69d2a47ea670b442974b53935d1edc7fd64eb21e047a839171b60405160405180910390a45b5050565b60008061275683612d04565b905060007fdf43e9a1b149ad0eb0100cbf4cff7f880fd39c759eb6011b235367dbbffa03848860405160200161278c9190613da2565b60405160208183030381529060405287805190602001206127ac8a612dd4565b886040516020016127c1959493929190613c68565b60405160208183030381529060405280519060200120905081816040516020016127ec929190613d31565b604051602081830303815290604052805190602001209250505095945050505050565b60006001612827600185612b0190919063ffffffff16565b8154811061285e577f4e487b7100000000000000000000000000000000000000000000000000000000600052603260045260246000fd5b906000526020600020906003020160405180606001604052908160008201805461288790614375565b80601f01602080910402602001604051908101604052809291908181526020018280546128b390614375565b80156129005780601f106128d557610100808354040283529160200191612900565b820191906000526020600020905b8154815290600101906020018083116128e357829003601f168201915b5050505050815260200160018201805461291990614375565b80601f016020809104026020016040519081016040528092919081815260200182805461294590614375565b80156129925780601f1061296757610100808354040283529160200191612992565b820191906000526020600020905b81548152906001019060200180831161297557829003601f168201915b505050505081526020016002820180546129ab90614375565b80601f01602080910402602001604051908101604052809291908181526020018280546129d790614375565b8015612a245780601f106129f957610100808354040283529160200191612a24565b820191906000526020600020905b815481529060010190602001808311612a0757829003601f168201915b5050505050815250509050818160400181905250806001612a4f600186612b0190919063ffffffff16565b81548110612a86577f4e487b7100000000000000000000000000000000000000000000000000000000600052603260045260246000fd5b90600052602060002090600302016000820151816000019080519060200190612ab09291906131c5565b506020820151816001019080519060200190612acd9291906131c5565b506040820151816002019080519060200190612aea9291906131c5565b50905050505050565b600081600001549050919050565b600082821115612b46576040517f08c379a0000000000000000000000000000000000000000000000000000000008152600401612b3d90613f79565b60405180910390fd5b8183612b52919061424a565b905092915050565b600080612b6683612d04565b905060007f6b0553a826f28cfffb3ed7e2e5b5a3d36f27f917dbb35c73cda3d47d82642e2887604051602001612b9c9190613da2565b60405160208183030381529060405287604051602001612bbc9190613da2565b604051602081830303815290604052612bd489612dd4565b88604051602001612be9959493929190613cc3565b6040516020818303038152906040528051906020012090508181604051602001612c14929190613d31565b6040516020818303038152906040528051906020012092505050949350505050565b600080612c4283612d04565b905060007f77e83557045d33a0aa1c47c77c42feeb75bee9184681c70adcfbf5d08c4e269b88604051602001612c789190613da2565b60405160208183030381529060405288805190602001208880519060200120612ca08c612dd4565b89604051602001612cb696959493929190613bfc565b6040516020818303038152906040528051906020012090508181604051602001612ce1929190613d31565b604051602081830303815290604052805190602001209250505095945050505050565b60007f8b73c3c69bb8fe3d512ecc4cf759cc79239f7b179b0ffacaa9a75d522b39400f6040518060400160405280600681526020017f52414449414e0000000000000000000000000000000000000000000000000000815250805190602001206040518060400160405280600181526020017f3100000000000000000000000000000000000000000000000000000000000000815250805190602001208430604051602001612db7959493929190613df3565b604051602081830303815290604052805190602001209050919050565b600080600360008473ffffffffffffffffffffffffffffffffffffffff1673ffffffffffffffffffffffffffffffffffffffff1681526020019081526020016000209050612e2181612af3565b9150612e2c81613185565b50919050565b600081604051602001612e459190613d1a565b6040516020818303038152906040528051906020012083604051602001612e6c9190613d1a565b6040516020818303038152906040528051906020012014905092915050565b606060006002836002612e9e91906141f0565b612ea8919061419a565b67ffffffffffffffff811115612ee7577f4e487b7100000000000000000000000000000000000000000000000000000000600052604160045260246000fd5b6040519080825280601f01601f191660200182016040528015612f195781602001600182028036833780820191505090505b5090507f300000000000000000000000000000000000000000000000000000000000000081600081518110612f77577f4e487b7100000000000000000000000000000000000000000000000000000000600052603260045260246000fd5b60200101907effffffffffffffffffffffffffffffffffffffffffffffffffffffffffffff1916908160001a9053507f780000000000000000000000000000000000000000000000000000000000000081600181518110613001577f4e487b7100000000000000000000000000000000000000000000000000000000600052603260045260246000fd5b60200101907effffffffffffffffffffffffffffffffffffffffffffffffffffffffffffff1916908160001a9053506000600184600261304191906141f0565b61304b919061419a565b90505b6001811115613137577f3031323334353637383961626364656600000000000000000000000000000000600f8616601081106130b3577f4e487b7100000000000000000000000000000000000000000000000000000000600052603260045260246000fd5b1a60f81b8282815181106130f0577f4e487b7100000000000000000000000000000000000000000000000000000000600052603260045260246000fd5b60200101907effffffffffffffffffffffffffffffffffffffffffffffffffffffffffffff1916908160001a905350600485901c9450806131309061434b565b905061304e565b506000841461317b576040517f08c379a000000000000000000000000000000000000000000000000000000000815260040161317290613ef9565b60405180910390fd5b8091505092915050565b600181600001600082825461319a919061419a565b9250508190555050565b60405180606001604052806060815260200160608152602001606081525090565b8280546131d190614375565b90600052602060002090601f0160209004810192826131f3576000855561323a565b82601f1061320c57805160ff191683800117855561323a565b8280016001018555821561323a579182015b8281111561323957825182559160200191906001019061321e565b5b509050613247919061324b565b5090565b5b8082111561326457600081600090555060010161324c565b5090565b600061327b6132768461411b565b6140f6565b90508281526020810184848401111561329357600080fd5b61329e848285614309565b509392505050565b6000813590506132b581614769565b92915050565b6000813590506132ca81614780565b92915050565b6000813590506132df81614797565b92915050565b600082601f8301126132f657600080fd5b8135613306848260208601613268565b91505092915050565b60008135905061331e816147ae565b92915050565b600081359050613333816147c5565b92915050565b60006020828403121561334b57600080fd5b6000613359848285016132a6565b91505092915050565b600080600080600080600080610100898b03121561337f57600080fd5b600061338d8b828c016132a6565b985050602061339e8b828c016132a6565b975050604089013567ffffffffffffffff8111156133bb57600080fd5b6133c78b828c016132e5565b96505060606133d88b828c0161330f565b95505060806133e98b828c0161330f565b94505060a06133fa8b828c01613324565b93505060c061340b8b828c016132bb565b92505060e061341c8b828c016132bb565b9150509295985092959890939650565b600080600080600080600060e0888a03121561344757600080fd5b60006134558a828b016132a6565b97505060206134668a828b016132a6565b96505060406134778a828b0161330f565b95505060606134888a828b0161330f565b94505060806134998a828b01613324565b93505060a06134aa8a828b016132bb565b92505060c06134bb8a828b016132bb565b91505092959891949750929550565b6000806000806000806000806000806101408b8d0312156134ea57600080fd5b60006134f88d828e016132a6565b9a505060206135098d828e016132a6565b995050604061351a8d828e0161330f565b985050606061352b8d828e0161330f565b975050608061353c8d828e01613324565b96505060a061354d8d828e016132bb565b95505060c061355e8d828e016132bb565b94505060e061356f8d828e01613324565b9350506101006135818d828e016132bb565b9250506101206135938d828e016132bb565b9150509295989b9194979a5092959850565b600080604083850312156135b857600080fd5b60006135c6858286016132a6565b925050602083013567ffffffffffffffff8111156135e357600080fd5b6135ef858286016132e5565b9150509250929050565b600080600080600080600080610100898b03121561361657600080fd5b60006136248b828c016132a6565b985050602089013567ffffffffffffffff81111561364157600080fd5b61364d8b828c016132e5565b975050604089013567ffffffffffffffff81111561366a57600080fd5b6136768b828c016132e5565b96505060606136878b828c0161330f565b95505060806136988b828c0161330f565b94505060a06136a98b828c01613324565b93505060c06136ba8b828c016132bb565b92505060e06136cb8b828c016132bb565b9150509295985092959890939650565b6000602082840312156136ed57600080fd5b60006136fb848285016132bb565b91505092915050565b6000806040838503121561371757600080fd5b6000613725858286016132bb565b9250506020613736858286016132a6565b9150509250929050565b60006020828403121561375257600080fd5b6000613760848285016132d0565b91505092915050565b6000806040838503121561377c57600080fd5b600083013567ffffffffffffffff81111561379657600080fd5b6137a2858286016132e5565b925050602083013567ffffffffffffffff8111156137bf57600080fd5b6137cb858286016132e5565b9150509250929050565b6000602082840312156137e757600080fd5b60006137f58482850161330f565b91505092915050565b6138078161427e565b82525050565b61381681614290565b82525050565b6138258161429c565b82525050565b61383c6138378261429c565b6143d8565b82525050565b600061384d8261414c565b6138578185614162565b9350613867818560208601614318565b80840191505092915050565b600061387e82614157565b613888818561416d565b9350613898818560208601614318565b6138a181614479565b840191505092915050565b60006138b782614157565b6138c1818561417e565b93506138d1818560208601614318565b6138da81614479565b840191505092915050565b60006138f082614157565b6138fa818561418f565b935061390a818560208601614318565b80840191505092915050565b600061392360208361417e565b915061392e8261448a565b602082019050919050565b600061394660028361418f565b9150613951826144b3565b600282019050919050565b6000613969601b8361417e565b9150613974826144dc565b602082019050919050565b600061398c601d8361417e565b915061399782614505565b602082019050919050565b60006139af60118361417e565b91506139ba8261452e565b602082019050919050565b60006139d2601e8361417e565b91506139dd82614557565b602082019050919050565b60006139f560198361417e565b9150613a0082614580565b602082019050919050565b6000613a18600e8361417e565b9150613a23826145a9565b602082019050919050565b6000613a3b600d8361417e565b9150613a46826145d2565b602082019050919050565b6000613a5e60118361417e565b9150613a69826145fb565b602082019050919050565b6000613a8160168361417e565b9150613a8c82614624565b602082019050919050565b6000613aa460178361417e565b9150613aaf8261464d565b602082019050919050565b6000613ac760178361418f565b9150613ad282614676565b601782019050919050565b6000613aea600e8361417e565b9150613af58261469f565b602082019050919050565b6000613b0d60178361417e565b9150613b18826146c8565b602082019050919050565b6000613b3060118361418f565b9150613b3b826146f1565b601182019050919050565b6000613b53602f8361417e565b9150613b5e8261471a565b604082019050919050565b60006060830160008301518482036000860152613b868282613873565b91505060208301518482036020860152613ba08282613873565b91505060408301518482036040860152613bba8282613873565b9150508091505092915050565b613bd0816142f2565b82525050565b613be7613be2826142f2565b6143e2565b82525050565b613bf6816142fc565b82525050565b6000613c08828961382b565b602082019150613c188288613842565b9150613c24828761382b565b602082019150613c34828661382b565b602082019150613c448285613bd6565b602082019150613c548284613bd6565b602082019150819050979650505050505050565b6000613c74828861382b565b602082019150613c848287613842565b9150613c90828661382b565b602082019150613ca08285613bd6565b602082019150613cb08284613bd6565b6020820191508190509695505050505050565b6000613ccf828861382b565b602082019150613cdf8287613842565b9150613ceb8286613842565b9150613cf78285613bd6565b602082019150613d078284613bd6565b6020820191508190509695505050505050565b6000613d2682846138e5565b915081905092915050565b6000613d3c82613939565b9150613d48828561382b565b602082019150613d58828461382b565b6020820191508190509392505050565b6000613d7382613aba565b9150613d7f82856138e5565b9150613d8a82613b23565b9150613d9682846138e5565b91508190509392505050565b6000602082019050613db760008301846137fe565b92915050565b6000602082019050613dd2600083018461380d565b92915050565b6000602082019050613ded600083018461381c565b92915050565b600060a082019050613e08600083018861381c565b613e15602083018761381c565b613e22604083018661381c565b613e2f6060830185613bc7565b613e3c60808301846137fe565b9695505050505050565b6000608082019050613e5b600083018761381c565b613e686020830186613bed565b613e75604083018561381c565b613e82606083018461381c565b95945050505050565b60006020820190508181036000830152613ea581846138ac565b905092915050565b60006060820190508181036000830152613ec781866138ac565b90508181036020830152613edb81856138ac565b90508181036040830152613eef81846138ac565b9050949350505050565b60006020820190508181036000830152613f1281613916565b9050919050565b60006020820190508181036000830152613f328161395c565b9050919050565b60006020820190508181036000830152613f528161397f565b9050919050565b60006020820190508181036000830152613f72816139a2565b9050919050565b60006020820190508181036000830152613f92816139c5565b9050919050565b60006020820190508181036000830152613fb2816139e8565b9050919050565b60006020820190508181036000830152613fd281613a0b565b9050919050565b60006020820190508181036000830152613ff281613a2e565b9050919050565b6000602082019050818103600083015261401281613a51565b9050919050565b6000602082019050818103600083015261403281613a74565b9050919050565b6000602082019050818103600083015261405281613a97565b9050919050565b6000602082019050818103600083015261407281613add565b9050919050565b6000602082019050818103600083015261409281613b00565b9050919050565b600060208201905081810360008301526140b281613b46565b9050919050565b600060208201905081810360008301526140d38184613b69565b905092915050565b60006020820190506140f06000830184613bc7565b92915050565b6000614100614111565b905061410c82826143a7565b919050565b6000604051905090565b600067ffffffffffffffff8211156141365761413561444a565b5b61413f82614479565b9050602081019050919050565b600081519050919050565b600081519050919050565b600081905092915050565b600082825260208201905092915050565b600082825260208201905092915050565b600081905092915050565b60006141a5826142f2565b91506141b0836142f2565b9250827fffffffffffffffffffffffffffffffffffffffffffffffffffffffffffffffff038211156141e5576141e46143ec565b5b828201905092915050565b60006141fb826142f2565b9150614206836142f2565b9250817fffffffffffffffffffffffffffffffffffffffffffffffffffffffffffffffff048311821515161561423f5761423e6143ec565b5b828202905092915050565b6000614255826142f2565b9150614260836142f2565b925082821015614273576142726143ec565b5b828203905092915050565b6000614289826142d2565b9050919050565b60008115159050919050565b6000819050919050565b60007fffffffff0000000000000000000000000000000000000000000000000000000082169050919050565b600073ffffffffffffffffffffffffffffffffffffffff82169050919050565b6000819050919050565b600060ff82169050919050565b82818337600083830152505050565b60005b8381101561433657808201518184015260208101905061431b565b83811115614345576000848401525b50505050565b6000614356826142f2565b9150600082141561436a576143696143ec565b5b600182039050919050565b6000600282049050600182168061438d57607f821691505b602082108114156143a1576143a061441b565b5b50919050565b6143b082614479565b810181811067ffffffffffffffff821117156143cf576143ce61444a565b5b80604052505050565b6000819050919050565b6000819050919050565b7f4e487b7100000000000000000000000000000000000000000000000000000000600052601160045260246000fd5b7f4e487b7100000000000000000000000000000000000000000000000000000000600052602260045260246000fd5b7f4e487b7100000000000000000000000000000000000000000000000000000000600052604160045260246000fd5b6000601f19601f8301169050919050565b7f537472696e67733a20686578206c656e67746820696e73756666696369656e74600082015250565b7f1901000000000000000000000000000000000000000000000000000000000000600082015250565b7f536166654d6174683a206164646974696f6e206f766572666c6f770000000000600082015250565b7f45524332305065726d69743a206578706972656420646561646c696e65000000600082015250565b7f496e76616c6964207369676e6174757265000000000000000000000000000000600082015250565b7f536166654d6174683a207375627472616374696f6e206f766572666c6f770000600082015250565b7f496e76616c69642063726561746f72207369676e617475726500000000000000600082015250565b7f496e76616c69642073656e646572000000000000000000000000000000000000600082015250565b7f4e6f205065726d697373696f6e00000000000000000000000000000000000000600082015250565b7f496e76616c6964205369676e6174757265000000000000000000000000000000600082015250565b7f50726f66696c6520446f6573204e6f7420457869737400000000000000000000600082015250565b7f496e73756666696369656e74205065726d697373696f6e000000000000000000600082015250565b7f416363657373436f6e74726f6c3a206163636f756e7420000000000000000000600082015250565b7f50726f66696c6520457869737473000000000000000000000000000000000000600082015250565b7f50726f66696c6520446f6573204e6f7420457869737473000000000000000000600082015250565b7f206973206d697373696e6720726f6c6520000000000000000000000000000000600082015250565b7f416363657373436f6e74726f6c3a2063616e206f6e6c792072656e6f756e636560008201527f20726f6c657320666f722073656c660000000000000000000000000000000000602082015250565b6147728161427e565b811461477d57600080fd5b50565b6147898161429c565b811461479457600080fd5b50565b6147a0816142a6565b81146147ab57600080fd5b50565b6147b7816142f2565b81146147c257600080fd5b50565b6147ce816142fc565b81146147d957600080fd5b5056fea264697066735822122018e015063caf97533f28c5e07a6f4929d5af660aa59a2d5ecbe6b78474708e5d64736f6c63430008040033",
    "linkReferences": {},
    "deployedLinkReferences": {}
}